:1000000057C070C05BC05AC059C058C057C056C016
:1000100055C054C05E015E015E01FA0064005E01DD
:10002000FA006400BC0200000000000000000000B4
:1000300000000000000000000000000000000000C0
:1000400000000000000000000000000000000000B0
:1000500000000000000000000000000000000000A0
:1000600000008801880188013701D2018801370129
:10007000D201880100000000000000000000000024
:100080000000000000000000000000000000000070
:100090000000000000000000000000000000000060
:1000A0000000000000000000000000000000000050
:1000B00011241FBECFE9CDBF02D0BAC0A1CF81E0CD
:1000C00087BB82E088BB80E48BBF85B7877E806179
:1000D00085BF789485B7806285BF889585B78F7D09
:1000E00085BFF8CF1F920F920FB60F921124CF92B7
:1000F000DF92EF92FF920F931F932F933F934F93B3
:100100005F936F937F938F939F93AF93BF93CF939F
:10011000DF93EF93FF9382E48FBD83E083BFC0E062
:10012000D0E020E8C22E2FE4D22E22E1E22EF12CE4
:10013000FE01EE59FF4F25913491FE01EC5EFF4F19
:100140008591949163E070E040D097FD01968C0119
:1001500015950795442737FD4095542F97E0220FBA
:10016000331F441F551F9A95D1F7C701B6013ED0E2
:10017000215026BF101611064CF487EB9BE0019727
:10018000F1F700C000000A501109F4CF2296CE34D6
:10019000D10571F61FBC13BEFF91EF91DF91CF9196
:1001A000BF91AF919F918F917F916F915F914F918F
:1001B0003F912F911F910F91FF90EF90DF90CF9083
:1001C0000F900FBE0F901F9018950024552704C064
:1001D000080E591F880F991F009729F0769567958B
:1001E000B8F37105B9F7802D952F0895A1E21A2E65
:1001F000AA1BBB1BFD010DC0AA1FBB1FEE1FFF1FCB
:10020000A217B307E407F50720F0A21BB30BE40B1A
:10021000F50B661F771F881F991F1A9469F7609561
:100220007095809590959B01AC01BD01CF0108951B
:04023000F894FFCF70
:00000001FF
